{
  "contractName": "Demo",
  "abi": [
    {
      "inputs": [
        {
          "internalType": "uint256",
          "name": "_age",
          "type": "uint256"
        }
      ],
      "payable": false,
      "stateMutability": "nonpayable",
      "type": "constructor"
    },
    {
      "constant": false,
      "inputs": [
        {
          "internalType": "uint256",
          "name": "_age",
          "type": "uint256"
        }
      ],
      "name": "setAge",
      "outputs": [],
      "payable": false,
      "stateMutability": "nonpayable",
      "type": "function"
    },
    {
      "constant": true,
      "inputs": [],
      "name": "getAge",
      "outputs": [
        {
          "internalType": "uint256",
          "name": "",
          "type": "uint256"
        }
      ],
      "payable": false,
      "stateMutability": "view",
      "type": "function"
    }
  ],
  "bytecode": "0x608060405234801561001057600080fd5b506040516101203803806101208339818101604052602081101561003357600080fd5b8101908080519060200190929190505050806000819055505060c68061005a6000396000f3fe6080604052348015600f57600080fd5b506004361060325760003560e01c8063967e6e65146037578063d5dcf127146053575b600080fd5b603d607e565b6040518082815260200191505060405180910390f35b607c60048036036020811015606757600080fd5b81019080803590602001909291905050506087565b005b60008054905090565b806000819055505056fea265627a7a72315820f9edd142f2481ac29499b834ea5dd28611791f6cf4524b02409a67ff1298d8d864736f6c63430005100032",
  "source": "// SPDX-License-Identifier: MIT\r\npragma solidity >=0.4.25 <0.7.0;\r\n\r\ncontract Demo {\r\n    uint256 age;\r\n\r\n    constructor(uint256 _age)public{\r\n        age = _age;\r\n    }\r\n\r\n    function setAge(uint256 _age) public {\r\n        age = _age;\r\n    }\r\n\r\n    function getAge() public view returns (uint256) {\r\n        return age;\r\n    }\r\n}\r\n",
  "sourcePath": "C:\\Users\\solutechuser\\Documents\\Web3\\MilaiCoin\\contracts\\demo.sol",
  "compiler": {
    "name": "solc",
    "version": "0.5.16+commit.9c3226ce.Emscripten.clang"
  },
  "schemaVersion": "3.4.5",
  "updatedAt": "2022-02-21T13:39:40.843Z",
  "devdoc": {
    "methods": {}
  },
  "userdoc": {
    "methods": {}
  }
}